:100000000C9462000C948A000C948A000C948A0070
:100010000C948A000C948A000C948A000C948A0038
:100020000C948A000C948A000C948A000C948A0028
:100030000C948A000C948A000C948A000C948A0018
:100040000C948C000C948A000C94FC020C948A0092
:100050000C948A000C948A000C948A000C948A00F8
:100060000C948A000C948A000000000024002700F1
:100070002A0000000000250028002B0000000000DE
:1000800023002600290004040404040404040202DA
:100090000202020203030303030301020408102007
:1000A0004080010204081020010204081020000012
:1000B0000007000201000003040600000000000029
:1000C00000007E0411241FBECFEFD8E0DEBFCDBFFD
:1000D00012E0A0E0B1E0E6E4F5E302C005900D9285
:1000E000A034B107D9F712E0A0E4B2E001C01D923C
:1000F000A53EB107E1F710E0C4ECD0E004C02297C0
:10010000FE010E946E1AC23CD107C9F70E94E01995
:100110000C94A11A0C9400001F920F920FB60F922C
:1001200011242F933F938F939F93AF93BF9380910D
:10013000440290914502A0914602B091470230914D
:1001400048020196A11DB11D232F2D5F2D3720F0F0
:100150002D570196A11DB11D2093480280934402A2
:1001600090934502A0934602B093470280914002CB
:1001700090914102A0914202B09143020196A11DCB
:10018000B11D8093400290934102A0934202B0932C
:100190004302BF91AF919F918F913F912F910F900B
:1001A0000FBE0F901F9018958FB7F89420914402BE
:1001B0003091450240914602509147028FBFB901EC
:1001C000CA0108959FB7F8942091400230914102EE
:1001D000409142025091430286B5A89B06C08F3FD2
:1001E00021F02F5F3F4F4F4F5F4F9FBF542F432F43
:1001F000322F2227280F311D411D511D82E0220F71
:10020000331F441F551F8A95D1F7B901CA010895BC
:100210009B01AC017FB7F89480914002909141021C
:10022000A0914202B091430266B5A89B05C06F3F02
:1002300019F00196A11DB11D7FBFBA2FA92F982FCC
:100240008827860F911DA11DB11D62E0880F991F9F
:10025000AA1FBB1F6A95D1F7BC012DC0FFB7F89448
:100260008091400290914102A0914202B0914302DC
:10027000E6B5A89B05C0EF3F19F00196A11DB11D81
:10028000FFBFBA2FA92F982F88278E0F911DA11D70
:10029000B11DE2E0880F991FAA1FBB1FEA95D1F795
:1002A000861B970B885E9340C8F221503040404037
:1002B000504068517C4F211531054105510571F6BB
:1002C0000895019739F0880F991F880F991F029799
:1002D0000197F1F70895789484B5826084BD84B560
:1002E000816084BD85B5826085BD85B5816085BD31
:1002F000EEE6F0E0808181608083E1E8F0E010824A
:10030000808182608083808181608083E0E8F0E08A
:10031000808181608083E1EBF0E080818460808374
:10032000E0EBF0E0808181608083EAE7F0E08081AB
:10033000846080838081826080838081816080830B
:100340008081806880831092C100089580930001AD
:100350000895982F8E3008F09E509770809100017C
:100360008295880F880F807C892B80937C008091F8
:100370007A00806480937A0080917A0086FDFCCFB9
:100380002091780040917900942F80E030E0282B74
:10039000392BC90108951F93CF93DF93182FEB01D9
:1003A00061E00E942B02209709F44AC0CF3FD1059B
:1003B00009F449C0E12FF0E0E255FF4F849183300A
:1003C000C1F0843028F4813051F08230B1F50CC096
:1003D000863019F1873049F1843079F514C084B53D
:1003E000806884BDC7BD33C084B5806284BDC8BD8C
:1003F0002EC080918000806880938000D093890017
:10040000C093880024C08091800080628093800027
:10041000D0938B00C0938A001AC08091B00080688E
:100420008093B000C093B30012C08091B00080628E
:100430008093B000C093B4000AC0C038D1051CF44A
:10044000812F60E002C0812F61E00E945102DF91A4
:10045000CF911F910895482F50E0CA0186569F4FB3
:10046000FC0124914A575F4FFA0184918823C1F01F
:10047000E82FF0E0EE0FFF1FE859FF4FA591B49170
:10048000662341F49FB7F8948C91209582238C9336
:100490009FBF08959FB7F8948C91822B8C939FBF38
:1004A0000895482F50E0CA0182559F4FFC012491C6
:1004B000CA0186569F4FFC0134914A575F4FFA019B
:1004C0009491992309F444C0222351F1233071F00F
:1004D000243028F42130A1F0223011F514C0263048
:1004E000B1F02730C1F02430D9F404C080918000ED
:1004F0008F7703C0809180008F7D8093800010C033
:1005000084B58F7702C084B58F7D84BD09C080918A
:10051000B0008F7703C08091B0008F7D8093B000D2
:10052000E92FF0E0EE0FFF1FEE58FF4FA591B491B9
:10053000662341F49FB7F8948C91309583238C9374
:100540009FBF08959FB7F8948C91832B8C939FBF86
:100550000895682F70E0CB0182559F4FFC012491D4
:10056000CB0186569F4FFC0144916A577F4FFB0198
:100570009491992319F420E030E03CC0222351F1FA
:10058000233071F0243028F42130A1F0223011F50D
:1005900014C02630B1F02730C1F02430D9F404C0A3
:1005A000809180008F7703C0809180008F7D809341
:1005B000800010C084B58F7702C084B58F7D84BD64
:1005C00009C08091B0008F7703C08091B0008F7D0B
:1005D0008093B000892F90E0880F991F84589F4F17
:1005E000FC01A591B4918C9120E030E0842311F0BE
:1005F00021E030E0C90108951F920F920FB60F92CB
:1006000011242F933F934F938F939F93EF93FF93D7
:100610004091C600E091C902F091CA0231969F0153
:100620002F77307031978091CB029091CC022817B0
:10063000390739F0E75BFD4F40833093CA022093BE
:10064000C902FF91EF919F918F914F913F912F910F
:100650000F900FBE0F901F9018958F92AF92CF9270
:10066000DF92EF92FF920F931F93DF93CF93CDB75B
:10067000DEB7FC0185E091E0918380837383628320
:10068000558344833783268311870087F386E28668
:10069000D586C486A68687868D85808B8E85818B40
:1006A0008F85828BCF91DF911F910F91FF90EF90FB
:1006B000DF90CF90AF908F9008958F92AF92CF92AE
:1006C000DF92EF92FF920F931F93DF93CF93CDB7FB
:1006D000DEB7FC0185E091E09183808373836283C0
:1006E000558344833783268311870087F386E28608
:1006F000D586C486A68687868D85808B8E85818BE0
:100700008F85828BCF91DF911F910F91FF90EF909A
:10071000DF90CF90AF908F900895CF93DF93EC014F
:100720009A01AB01E885F985203081EE380780E039
:10073000480780E0580709F445C081E090E00A8846
:1007400002C0880F991F0A94E2F7808360E079E085
:100750008DE390E00E94131A2150304040405040F9
:100760005695479537952795EC81FD813083EE812D
:10077000FF812083EA85FB85208141E050E0CA01AA
:100780000E8402C0880F991F0A94E2F7282B208359
:10079000EA85FB852081CA010F8402C0880F991F5A
:1007A0000A94E2F7282B2083EA85FB85808108885C
:1007B00002C0440F551F0A94E2F7842B8083DF9117
:1007C000CF910895108220E130E0CECFFC01A285C8
:1007D000B3854C9121E030E0C901068402C0880F46
:1007E000991F0A94E2F7809584238C93A285B385A0
:1007F0004C91C901078402C0880F991F0A94E2F73F
:10080000809584238C93A285B3858C91008802C047
:10081000220F331F0A94E2F7209528232C93089582
:10082000DC011296ED91FC911397E058FF4F219156
:10083000319180819181281B390B2F773070C9014C
:100840000895DC011296ED91FC911397EE57FF4F3E
:100850002081318192918291E058F0408217930774
:1008600019F42FEF3FEF05C0E20FF31F8081282F0F
:1008700030E0C9010895DC011296ED91FC911397C7
:10088000DF01AE57BF4F2D913C911197E058FF4FBC
:1008900080819181E058F0408217930719F42FEF7F
:1008A0003FEF0BC0E20FF31F80812F5F3F4F2F7789
:1008B00030702D933C93282F30E0C9010895DC015E
:1008C0001296ED91FC911397EE57FF4F8081918125
:1008D000929382930895FC01A085B18521898C9122
:1008E00090E0022E02C0959587950A94E2F780FF6A
:1008F000F6CF0484F585E02D6083089585E091E0CE
:100900009093CE028093CD0289E492E09093D0023E
:100910008093CF0285EC90E09093D2028093D10235
:1009200084EC90E09093D4028093D30280EC90E02A
:100930009093D6028093D50281EC90E09093D802F8
:100940008093D70286EC90E09093DA028093D902EC
:1009500084E08093DB0283E08093DC0287E0809375
:10096000DD0285E08093DE0281E08093DF0208955E
:100970000F931F93CF93DF938C01EB0109C0219656
:10098000D801ED91FC910190F081E02DC80109950D
:1009900068816623A1F7DF91CF911F910F91089590
:1009A000EF92FF920F931F93CF93DF938C017B0104
:1009B000EA010CC0D7016D917D01D801ED91FC9148
:1009C0000190F081E02DC80109952197209791F7BA
:1009D000DF91CF911F910F91FF90EF900895DC016F
:1009E000ED91FC910280F381E02D09950895CF925D
:1009F000DF92EF92FF920F931F93CF93DF936C01DF
:100A00007B01C0E0D0E00EC0D601ED91FC910081E9
:100A10001181C701BE010E94BF07682FC601F801FE
:100A200009952196F70184819581C817D90760F34C
:100A3000DF91CF911F910F91FF90EF90DF90CF90BA
:100A400008952F923F924F925F926F927F928F9272
:100A50009F92AF92BF92CF92DF92EF92FF920F934D
:100A60001F93DF93CF93CDB7DEB7A0970FB6F8945F
:100A7000DEBF0FBECDBF1C016A017B0141155105D0
:100A80006105710549F440E350E060E070E020E06A
:100A900030E00E94ED0556C0882499245401422E6E
:100AA00055246624772401E010E00C0F1D1F080D6B
:100AB000191DC701B601A30192010E94131AF80182
:100AC00060830894811C911CA11CB11CC701B60154
:100AD000A30192010E94131AC901DA016C017D0180
:100AE000C114D104E104F104F1F681E0E82EF12C07
:100AF000EC0EFD1EE80CF91C3E010894611C711CF3
:100B0000D501C4010197A109B1096C01C818D90820
:100B100016C0F601EE0DFF1D40814A3010F4405D15
:100B200001C0495C552747FD5095652F752FC101C0
:100B300020E030E00E94ED050894E108F1086E1411
:100B40007F0439F7A0960FB6F894DEBF0FBECDBF75
:100B5000CF91DF911F910F91FF90EF90DF90CF9099
:100B6000BF90AF909F908F907F906F905F904F90CD
:100B70003F902F900895DC012115310541F4ED914E
:100B8000FC910190F081E02D642F099508950E9459
:100B900021050895EF92FF920F931F939A017B0115
:100BA00000E010E0B801A7010E94BB051F910F9162
:100BB000FF90EF900895EF92FF920F931F939A0189
:100BC000E62EFF2400E010E0B801A7010E94BB055B
:100BD0001F910F91FF90EF900895EF92FF920F9366
:100BE0001F93CF93DF93EC017A018B01211531051F
:100BF00041F4E881F9810190F081E02D642F09959D
:100C00001BC02A303105B1F477FF10C04DE250E02F
:100C100060E070E020E030E00E94ED051095009566
:100C2000F094E094E11CF11C011D111DCE01B801EE
:100C3000A7012AE00E942105DF91CF911F910F911A
:100C4000FF90EF900895EF92FF920F931F937B0117
:100C50009A010027F7FC0095102FB801A7010E9408
:100C6000ED051F910F91FF90EF900895EF92FF9285
:100C70000F931F93E62E9A01FF24E7FCF0940F2DAB
:100C80001F2DB801A7010E94ED051F910F91FF9044
:100C9000EF9008950F931F938C014DE050E060E0BA
:100CA00070E020E030E00E94ED05C8014AE050E02D
:100CB00060E070E020E030E00E94ED051F910F91B0
:100CC00008950F931F938C010E94BB05C8010E94D9
:100CD0004A061F910F910895CF92DF92EF92FF92F3
:100CE0000F931F938C019A016B01EE24FF24B7012F
:100CF000A6010E94BB05C8010E944A061F910F91E0
:100D0000FF90EF90DF90CF900895CF92DF92EF9217
:100D1000FF920F931F938C019A01C62EDD24EE24BF
:100D2000FF24B701A6010E94BB05C8010E944A0624
:100D30001F910F91FF90EF90DF90CF9008950F9348
:100D40001F938C010E94EF04C8010E944A061F9164
:100D50000F9108950F931F938C010E94F704C8010F
:100D60000E944A061F910F9108950F931F938C01C3
:100D70000E94ED05C8010E944A061F910F91089537
:100D8000CF92DF92EF92FF920F931F938C016B0132
:100D90009A01EE24D7FCE094FE2CB701A6010E9434
:100DA000ED05C8010E944A061F910F91FF90EF9038
:100DB000DF90CF900895CF92DF92EF92FF920F9342
:100DC0001F938C01C62E9A01DD24C7FCD094ED2C14
:100DD000FD2CB701A6010E94ED05C8010E944A063C
:100DE0001F910F91FF90EF90DF90CF9008959F9209
:100DF000AF92BF92CF92DF92EF92FF920F931F9329
:100E0000CF93DF93EC017A018B01922ECB01BA01D3
:100E100020E030E040E050E00E946B1388236CF447
:100E2000CE014DE250E060E070E020E030E00E9452
:100E3000ED0517FB109517F9109520E030E040E024
:100E40005FE3AA240BC0CA01B90120E030E040E210
:100E500051E40E948F129B01AC01A394A91498F352
:100E6000C801B7010E9468115B016C010E94BF0FAD
:100E70007B018C01CE01B801A7012AE030E00E947D
:100E8000BB05992029F0CE0165E271E00E94EF04D4
:100E9000C801B7010E944D149B01AC01C601B50108
:100EA0000E94371122C020E030E040E251E40E946D
:100EB00095117B018C010E94F9135B016C01CC241C
:100EC000B7FCC094DC2CCE01B601A5012AE030E0CD
:100ED0000E94ED05C601B5010E949B139B01AC0168
:100EE000C801B7010E9437119A949920E1F6DF9169
:100EF000CF911F910F91FF90EF90DF90CF90BF9017
:100F0000AF909F9008950E94F70608950F931F9346
:100F10008C010E94F706C8010E944A061F910F919A
:100F20000895FC010190F081E02DE60FF71F80810C
:100F30000895DC01ED91FC911197309751F01496D2
:100F40008D919C9115976817790718F4E60FF71F94
:100F500040830895FC019B0184819581681779077E
:100F600028F4608171816115710529F41092E00205
:100F700060EE72E002C0620F731FCB010895FC01A6
:100F80000190F081E02DE60FF71F80810895FC01AC
:100F9000808191810E94921808950F931F93CF939F
:100FA000DF93FC018B0141155105A1F0611571051D
:100FB00089F084819581EA0121978C179D0708F4B7
:100FC000EC0160817181C801AE010E94F618C00F6A
:100FD000D11F1882DF91CF911F910F9108950F9328
:100FE0001F93CF93DF93FC018B0141155105A1F0B5
:100FF0006115710589F084819581EA0121978C172B
:101000009D0708F4EC0160817181C801AE010E9466
:10101000F618C00FD11F1882DF91CF911F910F9149
:1010200008950F931F938C01FC01808191810E9490
:101030006517F80113821282158214821F910F9195
:101040000895FC01DB0114962D913C911597848144
:101050009581821B930B8417950710F480E0089507
:10106000808191816D917C91840F951FA9010E94CF
:10107000E8189C0180E0232B09F481E00895FC012D
:10108000DB012481358114968D919C911597281749
:10109000390710F480E00895CF0140E050E00E944D
:1010A00021080895DF92EF92FF920F931F93CF9341
:1010B000DF93EC018C819D8148175907C8F47A01B0
:1010C0000894E11CF11CE881F981EE0DFF1DD08030
:1010D000108208811981772767FD7095C8010E94E9
:1010E00005199C010E0D1F1DF801D082009719F4FF
:1010F000EFEFFFEF05C088819981F901E81BF90B3B
:10110000CF01DF91CF911F910F91FF90EF90DF9072
:101110000895FC0144815581415050400E9452087D
:101120000895CF93DF93FC01DB01848195814817FB
:10113000590760F4C081D1816D917C91CE01840FFB
:10114000951F0E9410199C01009719F42FEF3FEF93
:1011500002C02C1B3D0BC901DF91CF91089540E0E7
:1011600050E00E9491080895CF93DF93FC018481A1
:1011700095814817590768F4C081D181772767FDA9
:101180007095CE01840F951F0E94CD189C01009789
:1011900019F42FEF3FEF02C02C1B3D0BC901DF916B
:1011A000CF91089540E050E00E94B4080895DC011A
:1011B000FB0114962D913C911597848195812817F8
:1011C000390711F080E00895608171818D919C91C3
:1011D0000E94D8189C0180E0232B09F481E0089537
:1011E000FC01DB012481358114968D919C9115972A
:1011F0002817390710F480E00895281B390B8081E7
:1012000091816D917C91820F931F0E94D8189C014F
:1012100080E0232B09F481E00895DC01FB0160816B
:1012200071818D919C910E94D818292F332727FD19
:101230003095209530952227330F221F3327C9017F
:101240000895DC01FB01608171818D919C910E9468
:10125000D81840E050E01816190614F041E050E0AC
:10126000CA010895DC01FB01608171818D919C911F
:101270000E94D81840E050E01816190614F441E016
:1012800050E0CA010895DC01FB01608171818D91FC
:101290009C910E94D818292F332727FD30952227AB
:1012A000330F221F3327C9010895DC01FB01149677
:1012B0002D913C911597848195812817390751F418
:1012C000608171818D919C910E94D8189C0180E071
:1012D000232B09F081E090E00895DC01FB011496D6
:1012E0002D913C911597848195812817390711F02C
:1012F00080E00BC0608171818D919C910E94D81813
:101300009C0180E0232B09F481E090E00895FC012A
:10131000DB016D917C91808191810E94D8180895A4
:101320000F931F93CF93DF93EC018B01FB0164813B
:1013300075818C819D81680F791F7D836C838A8183
:101340009B8186179707B8F46F5F7F4F88819981DB
:101350000E94BD174C815D81009729F09983888395
:101360005B834A8308C0F80184819581481B590B2F
:101370005D834C8307C0F801608171818881998108
:101380000E94C218CE01DF91CF911F910F91089555
:101390000E9490090895CF93DF93EC01CB017B83EA
:1013A0006A8301960E94BB1699838883009721F473
:1013B0001B821A821D821C82DF91CF9108950F93A8
:1013C0001F93CF93DF93EC018B018617970709F1E9
:1013D000FB01248135818C819D818217930750F414
:1013E000888199810E946517F80164817581CE0119
:1013F0000E94CB09288139812115310551F0F8016E
:10140000848195819D838C8360817181C9010E9453
:10141000E118CE01DF91CF911F910F9108951F9395
:10142000CF93DF93EC01162F81E090E09D838C83B6
:10143000CE0161E070E00E94CB09E881F98130972C
:1014400021F01083E881F9811182DF91CF911F9102
:1014500008951F93CF93DF93EC01162F81E090E066
:101460009D838C83CE0161E070E00E94CB09E8810E
:10147000F981309721F01083E881F9811182DF91A1
:10148000CF911F9108951F93CF93DF93EC01162FF7
:1014900081E090E09D838C83CE0161E070E00E944A
:1014A000CB09E881F981309721F01083E881F98137
:1014B0001182DF91CF911F9108951F93CF93DF93F6
:1014C000EC01162F81E090E09D838C83CE0161E0DA
:1014D00070E00E94CB09E881F981309721F01083F8
:1014E000E881F9811182DF91CF911F9108950F93C7
:1014F0001F93CF93DF938C01EB016C817D81FC0105
:10150000758364830E94CB09F801808191810097E3
:1015100021F0688179810E94E118DF91CF911F91BC
:101520000F9108950F931F93CF93DF938C01EB01DD
:101530006C817D81FC01758364830E94CB09F80175
:1015400080819181009721F0688179810E94E11862
:10155000DF91CF911F910F910895EF92FF920F931A
:101560001F93DF93CF93CDB7DEB7A1970FB6F89453
:10157000DEBF0FBECDBF8C01CB01BA017E01089446
:10158000E11CF11CA7012AE030E00E949419F70148
:1015900001900020E9F73197EE19FF09D80115965F
:1015A000FC93EE931497C801BF010E94CB09F80188
:1015B00080819181009719F0B7010E94E118A196EE
:1015C0000FB6F894DEBF0FBECDBFCF91DF911F9154
:1015D0000F91FF90EF900895EF92FF920F931F935A
:1015E000DF93CF93CDB7DEB7A1970FB6F894DEBFE8
:1015F0000FBECDBF8C01CB01BA017E010894E11C66
:10160000F11CA7012AE030E00E949419F701019033
:101610000020E9F73197EE19FF09D8011596FC93E0
:10162000EE931497C801BF010E94CB09F801808195
:101630009181009719F0B7010E94E118A1960FB6A9
:10164000F894DEBF0FBECDBFCF91DF911F910F91F8
:10165000FF90EF900895EF92FF920F931F93DF9307
:10166000CF93CDB7DEB7A1970FB6F894DEBF0FBE0C
:10167000CDBF8C019A0180E090E07E010894E11CCE
:10168000F11CA7010E949419F70101900020E9F7CD
:101690003197EE19FF09D8011596FC93EE93149734
:1016A000C801BF010E94CB09F80180819181009798
:1016B00019F0B7010E94E118A1960FB6F894DEBFA9
:1016C0000FBECDBFCF91DF911F910F91FF90EF9093
:1016D0000895EF92FF920F931F93DF93CF93CDB7AF
:1016E000DEB7A1970FB6F894DEBF0FBECDBF8C0159
:1016F0009A0180E090E07E010894E11CF11CA701B2
:101700000E949419F70101900020E9F73197EE1932
:10171000FF09D8011596FC93EE931497C801BF01F9
:101720000E94CB09F80180819181009719F0B701DF
:101730000E94E118A1960FB6F894DEBF0FBECDBF90
:10174000CF91DF911F910F91FF90EF9008950F932C
:101750001F93CF93DF938C01EB016115710511F499
:10176000C1E3D1E0FE0101900020E9F73197EC1BC5
:10177000FD0BD8011596FC93EE931497C801BF0199
:101780000E94CB09F80180819181009719F0BE0178
:101790000E94E118DF91CF911F910F910895AF92B0
:1017A000BF92CF92DF92EF92FF920F931F93CF934E
:1017B000DF93B82EA92E6B01C82FD92FFB016081B2
:1017C0007181CE010E94A70BEE24FF2410C0088176
:1017D00019810E0D1F1DF8018081992787FD9095B5
:1017E0000E94821AF80180830894E11CF11CF60122
:1017F00084819581E816F90650F38B2D9A2DDF919F
:10180000CF911F910F91FF90EF90DF90CF90BF90FD
:10181000AF900895AF92BF92CF92DF92EF92FF9276
:101820000F931F93CF93DF93B82EA92E6B01C82F70
:10183000D92FFB0160817181CE010E94A70BEE249C
:10184000FF2410C0088119810E0D1F1DF801808131
:10185000992787FD90950E947A1AF8018083089451
:10186000E11CF11CF60184819581E816F90650F31C
:101870008B2D9A2DDF91CF911F910F91FF90EF90BB
:10188000DF90CF90BF90AF900895EF92FF920F93AB
:101890001F93DF93CF93CDB7DEB72C970FB6F89495
:1018A000DEBF0FBECDBFFC017B018617970711F489
:1018B00001E029C024813581DB0114968D919C9132
:1018C00015972817390711F000E01DC0CE010196C9
:1018D000BF010E940A0C09811A81CE010796B70147
:1018E0000E940A0C6F817885C8010E94D81800E018
:1018F000009709F401E0CE0107960E941108CE017D
:1019000001960E941108802F2C960FB6F894DEBF26
:101910000FBECDBFCF91DF911F910F91FF90EF9040
:101920000895CF92DF92EF92FF921F93CF93DF93B0
:101930006C017B01B9012417350710F4BA01A90124
:10194000D70114968D919C911597EB0186179707F7
:1019500008F4EC01D701ED91FC911197EC0FFD1FFC
:10196000108110826D917C91640F751FC6010E94D9
:10197000A70BD701ED91FC91EC0FFD1F1083C60161
:10198000DF91CF911F91FF90EF90DF90CF9008955E
:101990000F931F938C01FB01248135810E94910CD0
:1019A000C8011F910F9108958F929F92AF92BF929D
:1019B000CF92DF92EF92FF920F931F93DF93CF931B
:1019C00000D000D000D0CDB7DEB75C016B01DB01E9
:1019D00014968D919C9115970097A1F10197481746
:1019E000590780F1F501848195814817590750F511
:1019F000ED91FC9100817A014E010894811C911CAB
:101A00001FC0D501ED91FC91EE0DFF1D8081801767
:101A1000A1F4F601248135812E0D3F1DC401B501CD
:101A2000A7010E94910CC401B6010E94D708182F8B
:101A3000C4010E941108112341F40894E108F1083F
:101A4000F7FEDFCFEE24EA94FE2CC70126960FB6F0
:101A5000F894DEBF0FBECDBFCF91DF911F910F91E4
:101A6000FF90EF90DF90CF90BF90AF909F908F90BE
:101A70000895FC01DB014481558114968D919C9160
:101A80001597481B590BCF010E94D40C0895AF92B3
:101A9000BF92CF92DF92EF92FF920F931F93DF934B
:101AA000CF9300D000D000D0CDB7DEB75C018B0162
:101AB000DB016D917C916115710521F4B8010E94E3
:101AC000770A42C0CE0101960E94A70BF801E4807C
:101AD000F580CC24DD2410C0D801ED91FC91EC0DF3
:101AE000FD1D8081992787FD90950E94721A892B90
:101AF00031F00894C11CD11CCE14DF0468F3ED80D2
:101B0000FE800DC0D801ED91FC91EE0DFF1D80818E
:101B1000992787FD90950E94721A892B31F00894BD
:101B2000E108F108CE14DF0468F30894E11CF11C0D
:101B3000C5018E010F5F1F4FB801A60197010E94DA
:101B4000910CC8010E941108C50126960FB6F894A1
:101B5000DEBF0FBECDBFCF91DF911F910F91FF90E0
:101B6000EF90DF90CF90BF90AF9008952F923F926B
:101B70004F925F926F927F928F929F92AF92BF929D
:101B8000CF92DF92EF92FF920F931F93DF93CF9349
:101B9000CDB7DEB768970FB6F894DEBF0FBECDBFE6
:101BA0003C01FB012A0119016081718161157105F8
:101BB00021F4BF010E94770A5AC07E010894E11CFB
:101BC000F11CC7010E94A70B8E01095F1F4FC801BE
:101BD00061E371E00E94A70BD02EC12E3DE0832E61
:101BE000912C8C0E9D1E23E1A22EB12CAC0EBD1E9D
:101BF00024C0C401B70140E050E098010E94910C5C
:101C00008D2D9C2DB4010E949009C4010E941108E1
:101C10008D2D9C2DB1010E949009F20144815581C6
:101C2000400F511FC501B7010E94C80CC701B50183
:101C30000E94DF09C5010E941108C701B2010E947C
:101C4000AF088C01FFEF8F3F9F0799F68D2D9C2DDC
:101C5000B7010E949009C3016D2D7C2D0E94770A67
:101C60008D2D9C2D0E941108C7010E941108C301EF
:101C700068960FB6F894DEBF0FBECDBFCF91DF914F
:101C80001F910F91FF90EF90DF90CF90BF90AF909A
:101C90009F908F907F906F905F904F903F902F908C
:101CA0000895DF92EF92FF920F931F93DF93CF93EC
:101CB00000D000D000D0CDB7DEB77C01FB01142FDF
:101CC000D22E608171816115710521F4BF010E94DE
:101CD000770A1CC0CE0101960E94A70B89819A81C8
:101CE000012F112707FD109501C0D082B8010E9475
:101CF000CD18FC010097C9F7C7018E010F5F1F4F78
:101D0000B8010E94770AC8010E941108C7012696EF
:101D10000FB6F894DEBF0FBECDBFCF91DF911F91FC
:101D20000F91FF90EF90DF9008950F931F93CF9343
:101D3000DF938C01EB016115710511F4C1E3D1E072
:101D4000FE0101900020E9F73197EC1BFD0BD80153
:101D50001596FC93EE931497C801BF010E94CB091E
:101D6000F80180819181009719F0BE010E94E1186D
:101D7000DF91CF911F910F910895EF92FF920F93F2
:101D80001F93DF93CF93CDB7DEB7A1970FB6F8942B
:101D9000DEBF0FBECDBF8C01CB01BA017E0108941E
:101DA000E11CF11CA7010E944B19F70101900020D2
:101DB000E9F73197EE19FF09D8011596FC93EE93D8
:101DC0001497C801BF010E94CB09F801808191815D
:101DD000009719F0B7010E94E118A1960FB6F89488
:101DE000DEBF0FBECDBFCF91DF911F910F91FF904E
:101DF000EF900895EF92FF920F931F93DF93CF938D
:101E0000CDB7DEB7A1970FB6F894DEBF0FBECDBF3A
:101E10008C01CB01BA017E010894E11CF11CA701E1
:101E20000E944B19F70101900020E9F73197EE1954
:101E3000FF09D8011596FC93EE931497C801BF01D2
:101E40000E94CB09F80180819181009719F0B701B8
:101E50000E94E118A1960FB6F894DEBF0FBECDBF69
:101E6000CF91DF911F910F91FF90EF900895EF9226
:101E7000FF920F931F93DF93CF93CDB7DEB7A19758
:101E80000FB6F894DEBF0FBECDBF8C01CB017E0133
:101E90000894E11CF11CB7010E942A19F701019076
:101EA0000020E9F73197EE19FF09D8011596FC9348
:101EB000EE931497C801BF010E94CB09F8018081FD
:101EC0009181009719F0B7010E94E118A1960FB611
:101ED000F894DEBF0FBECDBFCF91DF911F910F9160
:101EE000FF90EF900895EF92FF920F931F93DF936F
:101EF000CF93CDB7DEB7A1970FB6F894DEBF0FBE74
:101F0000CDBF8C01CB017E010894E11CF11CB7010F
:101F10000E942A19F70101900020E9F73197EE1984
:101F2000FF09D8011596FC93EE931497C801BF01E1
:101F30000E94CB09F80180819181009719F0B701C7
:101F40000E94E118A1960FB6F894DEBF0FBECDBF78
:101F5000CF91DF911F910F91FF90EF900895089519
:101F6000FC0120E030E08081882311F421E030E0A2
:101F7000C9010895FC0181E0808308950895EF92DE
:101F8000FF920F931F937B018C0120E030E040E033
:101F90005FE40E943B1388238CF0C801B70120E066
:101FA00030E040E05FE40E9437110E94F9139B018A
:101FB000AC01205030404040504806C0C801B70135
:101FC0000E94F9139B01AC01B901CA011F910F9145
:101FD000FF90EF900895A0E0B0E0E1EFFFE00C94F7
:101FE000351ADC012B01FA019C91923008F439C1B9
:101FF000EB018881823008F433C1943069F4843075
:1020000009F02FC111969C9111978981981709F4B5
:1020100028C1A2E3B1E025C1843009F421C1823096
:10202000A9F4923009F01DC19A01AD0188E0EA01DE
:102030000990AE01E90109929E018150C1F7E201C8
:10204000898111969C918923818308C1923009F47A
:1020500007C112962D903C901397EB018A819B81CA
:102060001496AD90BD90CD90DC901797EC80FD80DC
:102070000E811F819101281B390BB90137FF04C064
:1020800066277727621B730B603271050CF061C005
:10209000121613066CF537014801062E04C09694FB
:1020A0008794779467940A94D2F721E030E040E077
:1020B00050E004C0220F331F441F551F6A95D2F70A
:1020C00021503040404050402E213F214023512399
:1020D000211531054105510521F021E030E040E0B6
:1020E00050E079018A01E628F728082919293CC01F
:1020F000232BD1F1260E371E35014601062E04C0D2
:1021000096948794779467940A94D2F721E030E00C
:1021100040E050E004C0220F331F441F551F6A9552
:10212000D2F721503040404050402A213B214C21E1
:102130005D21211531054105510521F021E030E0F7
:1021400040E050E059016A01A628B728C828D928DC
:102150000BC0821593052CF01C01AA24BB24650139
:1021600003C0EE24FF24870111969C91D2011196A1
:102170008C91981709F445C0992339F0A80197016B
:102180002A193B094C095D0906C0A60195012E19C3
:102190003F09400B510B57FD08C011823382228248
:1021A00024833583468357831DC081E08183338236
:1021B000228288279927DC01821B930BA40BB50B85
:1021C00084839583A683B7830DC0220F331F441FDA
:1021D000551F2483358346835783828193810197DA
:1021E000938382832481358146815781DA01C90135
:1021F0000197A109B1098F5F9F4FAF4FBF4328F3EC
:102200000BC0918333822282EA0CFB1C0C1D1D1D26
:10221000E482F5820683178383E0808324813581FD
:102220004681578157FF1AC0C901AA2797FDA0957B
:10223000BA2F81709070A070B07056954795379501
:102240002795822B932BA42BB52B84839583A68370
:10225000B78382819381019693838283DF0101C0DA
:10226000D201CD01CDB7DEB7E2E10C94511AA0E264
:10227000B0E0EDE3F1E10C94411A69837A838B833A
:102280009C832D833E834F835887E9E0EE2EF12C0B
:10229000EC0EFD1ECE010196B7010E94EA158E01DB
:1022A0000F5E1F4FCE010596B8010E94EA158A897C
:1022B00091E089278A8BC701B801AE01475E5F4F65
:1022C0000E94EB0F0E941515A096E6E00C945D1A93
:1022D000A0E2B0E0EEE6F1E10C94411A69837A8362
:1022E0008B839C832D833E834F835887F9E0EF2EA9
:1022F000F12CEC0EFD1ECE010196B7010E94EA15ED
:102300008E010F5E1F4FCE010596B8010E94EA159F
:10231000C701B801AE01475E5F4F0E94EB0F0E94FC
:102320001515A096E6E00C945D1AA0E2B0E0EBE98A
:10233000F1E10C94351A69837A838B839C832D8316
:102340003E834F835887CE010196BE01675F7F4F62
:102350000E94EA15CE010596BE016F5E7F4F0E9476
:10236000EA159985923088F089898230C8F09430D6
:1023700019F4823051F404C0843029F4923081F48D
:1023800082E391E0C6C0923049F420E09A858A89C0
:10239000981321E02A87CE010996BBC0823049F408
:1023A00020E09A858A89981321E02A8BCE014196F4
:1023B000B0C02D843E844F8458886D887E888F8875
:1023C000988CEE24FF248701AA24BB24650140E0F9
:1023D00050E060E070E0E0E0F0E0C10181709070FA
:1023E000892BE9F0E60CF71C081D191D9A01AB01B9
:1023F0002A0D3B1D4C1D5D1D80E090E0A0E0B0E08B
:10240000E614F7040805190520F481E090E0A0E047
:10241000B0E0BA01A901480F591F6A1F7B1FAA0C1F
:10242000BB1CCC1CDD1C97FE08C081E090E0A0E046
:10243000B0E0A82AB92ACA2ADB2A3196E032F1058F
:1024400049F0660C771C881C991C56944794379465
:102450002794C3CFFA85EA892B893C898B859C8593
:10246000280F391F2E5F3F4F17C0CA01817090702F
:10247000892B61F016950795F794E79480E090E03A
:10248000A0E0B0E8E82AF92A0A2B1B2B769567957D
:10249000579547952F5F3F4F77FDE7CF0CC0440F0F
:1024A000551F661F771F17FD4160EE0CFF1C001FB4
:1024B000111F21503040403090E0590790E06907EB
:1024C00090E4790760F32B8F3C8FDB01CA018F7793
:1024D0009070A070B07080349105A105B10561F4D1
:1024E00047FD0AC0E114F1040105110529F0405C23
:1024F0005F4F6F4F7F4F40781A8EFE1711F081E0CB
:102500008A8F4D8F5E8F6F8F78A383E0898FCE0186
:1025100049960E941515A096E2E10C94511AA8E183
:10252000B0E0E5E9F2E10C943D1A69837A838B838C
:102530009C832D833E834F835887B9E0EB2EF12C8B
:10254000EC0EFD1ECE010196B7010E94EA158E0128
:102550000F5E1F4FCE010596B8010E94EA1529852E
:10256000223008F47EC03989323010F4B8017CC0C2
:102570008A859A8989278A87243011F0223031F49C
:10258000231709F06EC062E371E06EC0343039F495
:102590001D861E861F86188A1C861B8604C0323044
:1025A00021F484E08987B7015FC02B853C858B8946
:1025B0009C89281B390B3C872B87ED84FE840F8573
:1025C0001889AD88BE88CF88D88CEA14FB040C0526
:1025D0001D0540F4EE0CFF1C001F111F2150304060
:1025E0003C872B8720E030E040E050E080E090E046
:1025F000A0E0B0E460E070E0EA14FB040C051D0507
:1026000040F0282B392B4A2B5B2BEA18FB080C09CE
:102610001D09B695A79597958795EE0CFF1C001F91
:10262000111F6F5F7F4F6F31710531F7DA01C901FB
:102630008F779070A070B07080349105A105B105BE
:1026400061F427FD0AC0E114F1040105110529F028
:10265000205C3F4F4F4F5F4F20782D873E874F873D
:10266000588BBE01675F7F4FCB010E94151568969E
:10267000EAE00C94591AA8E1B0E0E1E4F3E10C942B
:10268000411A69837A838B839C832D833E834F8396
:10269000588789E0E82EF12CEC0EFD1ECE01019644
:1026A000B7010E94EA158E010F5E1F4FCE010596FD
:1026B000B8010E94EA158985823040F0898982300C
:1026C00028F0C701B8010E94621601C08FEF68961A
:1026D000E6E00C945D1AA8E1B0E0E1E7F3E10C94C8
:1026E000411A69837A838B839C832D833E834F8336
:1026F000588789E0E82EF12CEC0EFD1ECE010196E4
:10270000B7010E94EA158E010F5E1F4FCE0105969C
:10271000B8010E94EA158985823040F089898230AB
:1027200028F0C701B8010E94621601C081E06896D6
:10273000E6E00C945D1AA8E0B0E0E1EAF3E10C9465
:102740003E1A9B01AC0183E08983DA01C901882725
:10275000B7FD83959927AA27BB27B82E21153105E8
:102760004105510519F482E089833AC08823A9F014
:10277000203080E0380780E0480780E8580729F4D7
:1027800060E070E080E09FEC30C0EE24FF24870121
:10279000E21AF30A040B150B02C079018A018EE1DB
:1027A000C82ED12CDC82CB82ED82FE820F8318876B
:1027B000C801B7010E94C61401971816190684F4BF
:1027C000082E04C0EE0CFF1C001F111F0A94D2F744
:1027D000ED82FE820F831887C81AD90ADC82CB8269
:1027E000BA82CE0101960E9415152896E9E00C9454
:1027F0005A1AACE0B0E0EFEFF3E10C94451A6983AC
:102800007A838B839C83CE010196BE016B5F7F4FE1
:102810000E94EA158D81823061F1823050F184305E
:1028200021F48E81882351F12EC02F81388537FD08
:1028300020C06E812F3131051CF06623F9F023C0D2
:102840008EE190E0821B930B29853A854B855C8550
:1028500004C056954795379527958A95D2F76623F4
:10286000B1F050954095309521953F4F4F4F5F4FB8
:102870000EC020E030E040E050E009C02FEF3FEF15
:102880004FEF5FE704C020E030E040E050E8B901DE
:10289000CA012C96E2E00C94611AA8E0B0E0E3E5EE
:1028A000F4E10C943D1A7B018C01611571058105E1
:1028B000910519F482E0898360C083E089838EE109
:1028C000C82ED12CDC82CB82ED82FE820F8318874A
:1028D000C801B7010E94C614FC013197F7FF3BC045
:1028E000222733272E1B3F0B57016801022E04C0FD
:1028F000D694C794B794A7940A94D2F740E050E0D6
:1029000060E070E081E090E0A0E0B0E004C0880FFB
:10291000991FAA1FBB1F2A95D2F70197A109B109D8
:102920008E219F21A023B1230097A105B10521F09D
:1029300041E050E060E070E04A295B296C297D2984
:102940004D835E836F8378878EE190E08E1B9F0BB3
:102950009C838B8312C0309781F00E2E04C0EE0C46
:10296000FF1C001F111F0A94D2F7ED82FE820F8315
:102970001887CE1ADF0ADC82CB821A82CE0101963A
:102980000E9415152896EAE00C94591AEF92FF92CE
:102990000F931F937B018C0180E0E81680E0F8061E
:1029A00081E0080780E0180788F48FEFE816F1044B
:1029B0000105110531F028F088E090E0A0E0B0E0DA
:1029C00017C080E090E0A0E0B0E012C080E0E81620
:1029D00080E0F80680E0080781E0180728F088E129
:1029E00090E0A0E0B0E004C080E190E0A0E0B0E0C2
:1029F00020E230E040E050E0281B390B4A0B5B0B33
:102A000004C016950795F794E7948A95D2F7F701D5
:102A1000E65CFE4F8081281B310941095109C9013B
:102A20001F910F91FF90EF900895DF92EF92FF9228
:102A30000F931F93FC01E480F58006811781D180FC
:102A40008081823048F480E090E0A0E1B0E0E82AA4
:102A5000F92A0A2B1B2BA5C0843009F49FC08230B1
:102A600021F4EE24FF24870105C0E114F1040105DF
:102A7000110519F4E0E0F0E096C0628173819FEFE8
:102A8000623879070CF05BC022E83FEF261B370B5A
:102A90002A3131052CF020E030E040E050E02AC03F
:102AA000B801A701022E04C0769567955795479502
:102AB0000A94D2F781E090E0A0E0B0E004C0880F73
:102AC000991FAA1FBB1F2A95D2F70197A109B10927
:102AD0008E219F21A023B1230097A105B10521F0EC
:102AE00081E090E0A0E0B0E09A01AB01282B392B07
:102AF0004A2B5B2BDA01C9018F779070A070B07000
:102B000080349105A105B10539F427FF09C0205C87
:102B10003F4F4F4F5F4F04C0215C3F4F4F4F5F4FC0
:102B2000E0E0F0E02030A0E03A07A0E04A07A0E4AF
:102B30005A0710F0E1E0F0E079018A0127C060381F
:102B4000710564F5FB01E158FF4FD801C7018F778C
:102B50009070A070B07080349105A105B10539F472
:102B6000E7FE0DC080E490E0A0E0B0E004C08FE399
:102B700090E0A0E0B0E0E80EF91E0A1F1B1F17FF4F
:102B800005C016950795F794E794319687E016955A
:102B90000795F794E7948A95D1F705C0EE24FF24B2
:102BA0008701EFEFF0E06E2F679566276795902F0E
:102BB0009F77D794DD24D7948E2F8695492F462B67
:102BC000582F5D29B701CA011F910F91FF90EF9017
:102BD000DF900895FC01DB01408151812281622F49
:102BE0006F7770E0221F2227221F9381892F880F81
:102BF000822B282F30E0991F9927991F11969C93BB
:102C0000119721153105A9F541155105610571058A
:102C100011F482E037C082E89FEF13969C938E9365
:102C200012979A01AB0167E0220F331F441F551F13
:102C30006A95D1F783E08C930DC0220F331F441F98
:102C4000551F12968D919C911397019713969C9303
:102C50008E931297203080E0380780E0480780E4A8
:102C6000580758F314962D933D934D935C93179703
:102C700008952F3F310579F441155105610571051E
:102C800019F484E08C93089564FF03C081E08C9371
:102C900012C01C9210C02F57304013963C932E93B5
:102CA000129783E08C9387E0440F551F661F771FB0
:102CB0008A95D1F7706414964D935D936D937C93D0
:102CC000179708951F93DC01FB019C91923008F443
:102CD00047C08081823008F443C0943051F411968B
:102CE0001C91843099F58181682F70E0611B710916
:102CF0003FC0843021F0923031F48230B9F18181CB
:102D0000882389F12DC011961C9111978230F1F022
:102D100081811817D9F412962D913C9113978281D5
:102D200093818217930794F028173907BCF0149603
:102D30008D919D910D90BC91A02D2481358146816E
:102D40005781281739074A075B0718F4112341F008
:102D50000AC082179307A407B50740F4112319F09E
:102D600061E070E005C06FEF7FEF02C060E070E0EF
:102D7000CB011F910895CF93DF93BC018230910561
:102D800010F462E070E0A091E302B091E402ED0182
:102D9000E0E0F0E040E050E021C0888199818617B2
:102DA000970769F48A819B81309719F09383828316
:102DB00004C09093E4028093E302FE0134C06817DC
:102DC000790738F44115510519F08417950708F46F
:102DD000AC01FE018A819B819C01E9012097E9F603
:102DE00041155105A9F1CA01861B970B049708F4F8
:102DF000BA01E0E0F0E02AC08D919C911197841710
:102E00009507F9F46417750781F412968D919C91DA
:102E10001397309719F09383828304C09093E40250
:102E20008093E302FD0132964CC0CA01861B970BCA
:102E3000FD01E80FF91F6193719302978D939C93A5
:102E400040C0FD01828193819C01D9011097A1F6B8
:102E50008091E1029091E202892B41F480913C0241
:102E600090913D029093E2028093E10240913E02F4
:102E700050913F024115510541F44DB75EB7809125
:102E80003A0290913B02481B590B2091E10230918C
:102E9000E202CA01821B930B8617970780F0AB01F1
:102EA0004E5F5F4F8417950750F0420F531F5093AA
:102EB000E2024093E102F9016193719302C0E0E004
:102EC000F0E0CF01DF91CF910895CF93DF9300978A
:102ED00009F450C0EC0122971B821A82A091E302F0
:102EE000B091E402109709F140E050E0AC17BD0743
:102EF00008F1BB83AA83FE0121913191E20FF31FF8
:102F0000AE17BF0779F48D919C911197280F391F47
:102F10002E5F3F4F3983288312968D919C91139792
:102F20009B838A834115510571F4D093E402C093C9
:102F3000E30220C012968D919C911397AD010097EA
:102F400011F0DC01D3CFFA01D383C28321913191F7
:102F5000E20FF31FCE17DF0769F488819981280FEC
:102F6000391F2E5F3F4FFA01318320838A819B8175
:102F700093838283DF91CF910895A0E0B0E0E3ECEA
:102F8000F7E10C94371A6C01009729F4CB010E94E9
:102F9000BB166C01C1C08EEF882E8FEF982E8C0C63
:102FA0009D1C8601060F171F0815190508F4B2C0ED
:102FB000F401A081B181A617B707B8F0A530B1051B
:102FC00008F4AAC0CD0104978617970708F4A4C097
:102FD0001297A61BB70BF801A193B193D4016D937F
:102FE0007C93CF010E94651797C07B01EA1AFB0A08
:102FF000EEEFFFEFEE0EFF1E36016A0E7B1EC09154
:10300000E302D091E40244245524AA24BB244AC0FC
:10301000C615D705E1F5488159814E155F05B8F110
:10302000CA0104978E159F05B0F41296A40FB51F20
:10303000F401B183A0832A813B814114510431F012
:10304000D20113963C932E93129766C03093E402FC
:103050002093E30261C08A819B81F801938382837C
:10306000425050404E195F0951834083411451042E
:1030700031F0D20113961C930E93129704C0109353
:10308000E4020093E302F4017183608345C0888108
:103090009981A816B90608F45C012E018A819B81EA
:1030A0009C01E901209709F0B3CF8091E102909152
:1030B000E20286159705E9F4A616B706D0F420912A
:1030C0003E0230913F022115310541F42DB73EB744
:1030D00080913A0290913B02281B390B021713078B
:1030E000C8F41093E2020093E102D4016D937C9343
:1030F00013C0CB010E94BB16EC01009759F0F401FC
:1031000040815181B6010E94B918C6010E9465171D
:103110006E0102C0CC24DD24C601CDB7DEB7E0E1EC
:103120000C94531A1F93FC0199278827BC01E8943B
:1031300011911032E9F3193010F01E30C8F31B3230
:1031400051F01D3249F4689406C00E947F19610F46
:10315000711D811D911D119110531A30B0F33EF471
:1031600090958095709561957F4F8F4F9F4F1F91E0
:103170000895FB01DC0102C001900D9241505040C6
:10318000D8F70895FB01DC010D900020E9F71197B5
:1031900001900D920020E1F70895FC0181918617BE
:1031A00021F08823D9F7992708953197CF01089501
:1031B000FB01DC018D91019080190110D9F3990B6D
:1031C0000895FB01DC0101900D920020E1F70895C4
:1031D000FB01DC014150504030F08D91019080198D
:1031E00019F40020B9F7881B990B0895FB01DC0145
:1031F0004150504048F001900D920020C9F701C0A5
:103200001D9241505040E0F70895FC0181E090E0AC
:103210000190061609F4CF010020D1F70197089517
:10322000FB0151915523A9F0BF01DC014D914517D8
:103230004111E1F759F4CD010190002049F04D9181
:1032400040154111C9F3FB014111EFCF81E090E03E
:1032500001970895FB019F01E8944230C4F0453284
:10326000B4F44A3029F497FB1EF4909581959F4F52
:10327000642F77270E948D1A805D8A330CF0895D58
:103280008193CB010097A1F716F45DE25193108270
:10329000C9010C94B919FA01CF93FF93EF9322302F
:1032A00044F1253234F5C22FE894CA3049F497FB33
:1032B0003EF490958095709561957F4F8F4F9F4F0D
:1032C0002C2F332744275527FF93EF930E94131A7F
:1032D000EF91FF91605D6A330CF0695D6193B90114
:1032E000CA01605070408040904051F716F4CDE222
:1032F000C19310828F919F91CF910C94B919592F3E
:10330000482F372F262F660F771F881F991F660FAC
:10331000771F881F991F620F731F841F951F660FE9
:10332000771F881F991F0895FA01CF93FF93EF939A
:103330002230CCF02532BCF4C22F2C2F3327442767
:103340005527FF93EF930E94131AEF91FF91605D51
:103350006A330CF0695D6193B901CA016050704035
:103360008040904051F710828F919F91CF910C94A3
:10337000B919DC01FC01672F71917723E1F73297CE
:1033800004C07C916D9370836291AE17BF07C8F340
:103390000895CF93DF93EC01888169810E942B020D
:1033A0008B818F3F29F488816A810E94510205C078
:1033B0006A81888170E00E94CB01DF91CF910895EE
:1033C0000F931F93DF93CF9300D000D0CDB7DEB71C
:1033D0000E946B018DEC92E040E855E260E070E005
:1033E0000E948D038E010F5F1F4F8DEC92E00E94B3
:1033F00010040497D4F38DEC92E00E943B0489837F
:103400008DEC92E00E943B048A838DEC92E00E9456
:103410003B048B838DEC92E00E943B048C83C801BB
:103420000E94C919E2CFA1E21A2EAA1BBB1BFD0103
:103430000DC0AA1FBB1FEE1FFF1FA217B307E40793
:10344000F50720F0A21BB30BE40BF50B661F771FEB
:10345000881F991F1A9469F76095709580959095CB
:103460009B01AC01BD01CF0108952F923F924F9275
:103470005F926F927F928F929F92AF92BF92CF9204
:10348000DF92EF92FF920F931F93CF93DF93CDB70D
:10349000DEB7CA1BDB0B0FB6F894DEBF0FBECDBF85
:1034A00009942A88398848885F846E847D848C8456
:1034B0009B84AA84B984C884DF80EE80FD800C815F
:1034C0001B81AA81B981CE0FD11D0FB6F894DEBF42
:1034D0000FBECDBFED010895EE0FFF1F0590F491D3
:1034E000E02D0994911116C0803219F08950855051
:1034F000D0F708959111089581548A5108F4805E9F
:10350000855A08959111089581568A5108F4805280
:1035100085580895992788270895AA1BBB1B51E158
:1035200007C0AA1FBB1FA617B70710F0A61BB70B33
:10353000881F991F5A95A9F780959095BC01CD01D8
:063540000895F894FFCF8E
:1035460001000000006B04B804D00410043B042101
:10355600045F0400000000AF0FB804D004AF0FAF43
:103566000FAF0FAF0F2E0000000000AF0FB804D052
:103576000400000000000000000000010202030336
:1035860003030404040404040404050505050505F1
:1035960005050505050505050505060606060606CF
:1035A60006060606060606060606060606060606B5
:1035B600060606060606060606060707070707079F
:1035C6000707070707070707070707070707070785
:1035D6000707070707070707070707070707070775
:1035E6000707070707070707070707070707070765
:1035F600070707070707070707070808080808084F
:103606000808080808080808080808080808080834
:103616000808080808080808080808080808080824
:103626000808080808080808080808080808080814
:103636000808080808080808080808080808080804
:1036460008080808080808080808080808080808F4
:1036560008080808080808080808080808080808E4
:1036660008080808080808080808080808080808D4
:10367600080808080808080808082000E5020000ED
:00000001FF
